{
    "contractName": "SimpleCalculator",
    "abi": [
        {
            "inputs": [
                {
                    "internalType": "uint256",
                    "name": "n",
                    "type": "uint256"
                }
            ],
            "name": "setX",
            "outputs": [],
            "stateMutability": "payable",
            "type": "function"
        },
        {
            "inputs": [],
            "name": "pow",
            "outputs": [
                {
                    "internalType": "uint256",
                    "name": "",
                    "type": "uint256"
                }
            ],
            "stateMutability": "view",
            "type": "function"
        }
    ],
    "bytecode": "0x608060405234801561001057600080fd5b506101dd806100206000396000f3fe6080604052600436106100295760003560e01c80634018d9aa1461002e578063ef7e1e891461004a575b600080fd5b610048600480360381019061004391906100aa565b610075565b005b34801561005657600080fd5b5061005f61007f565b60405161006c91906100e2565b60405180910390f35b8060008190555050565b6000805460005461009091906100fd565b905090565b6000813590506100a481610190565b92915050565b6000602082840312156100bc57600080fd5b60006100ca84828501610095565b91505092915050565b6100dc81610157565b82525050565b60006020820190506100f760008301846100d3565b92915050565b600061010882610157565b915061011383610157565b9250817fffffffffffffffffffffffffffffffffffffffffffffffffffffffffffffffff048311821515161561014c5761014b610161565b5b828202905092915050565b6000819050919050565b7f4e487b7100000000000000000000000000000000000000000000000000000000600052601160045260246000fd5b61019981610157565b81146101a457600080fd5b5056fea2646970667358221220d66a392afe6a590e4c7170c9f4dcc0ada58b7b10a71743bdbc7963fec8ecd05764736f6c63430008030033",
    "immutableReferences": {},
    "source": "pragma solidity >=0.8.0;\n\ncontract SimpleCalculator {\n  uint x;\n\n  function setX(uint n) public payable {\n    x = n;\n  }\n  \n  function pow() public view returns (uint) {\n      return x * x;\n  }\n}",
    "sourcePath": "/home/nervos/Nervos-Hackaton/gw-gitcoin-instruction/src/examples/2-deploy-contract/contracts/SimpleCalculator.sol",
    "compiler": {
        "name": "solc",
        "version": "0.8.3+commit.8d00100c.Linux.g++"
    },
    "schemaVersion": "3.4.2",
    "updatedAt": "2021-08-13T17:36:56.762Z",
    "devdoc": {
        "kind": "dev",
        "methods": {},
        "version": 1
    },
    "userdoc": {
        "kind": "user",
        "methods": {},
        "version": 1
    }
}